:100000000C942D040C9455040C9455040C94BC05CC
:100010000C94E2050C9455040C9455040C9455046E
:100020000C9455040C9455040C94E1210C948722F3
:100030000C9455040C9455040C9455040C945504DC
:100040000C9455040C9455040C9455040C945504CC
:100050000C9455040C9455040C9455040C942A26C5
:100060000C9455040C9455040C9455040C945504AC
:100070000C9455040C9455040C9455040C9455049C
:100080000C9455040C9455040C9455040C9455048C
:100090000C9499240C9455040C9455040C94550418
:1000A0000C9455040C9455040C94550405A84CCD9F
:1000B000B2D44EB93836A9020C50B9918688083CA2
:1000C000A6AAAA2ABE000000803FB988903D41142C
:1000D000553ED07F9F3E4FF78C3E03B0083E00AEAA
:1000E000823CBF9574BCB63F50B70000000053740B
:1000F0006F70206D616E75616C3A000A2020676137
:10010000696E3D000A20206661646554696D653D35
:100110000020206475726174696F6E3D002028456F
:100120006E61626C6564290A00202844697361620B
:100130006C6564290A0020467265650020506C6178
:1001400079696E670A0020416C6C6F636174656445
:1001500000446576696365204761696E3A20004F07
:1001600074686572200005010904A1018504090174
:10017000A100093016018027FF7F0000350047FFEE
:10018000FF00007510950181020931093209330918
:1001900034093516000027FF000000350047FF0036
:1001A0000000750895058102050915002501550017
:1001B00065001901292075019520810285F1090149
:1001C000150026FF00953F7508918285F20901957B
:1001D0003F75088182C0050F0992A1028502099F1F
:1001E00009A009A409A509A61500250135004501A6
:1001F0007501950581029503810309941500250178
:100200003500450175019501810209221501252856
:1002100035014528750795018102C00921A1028594
:1002200001092215012528350145287508950191F8
:10023000020925A1020926092709300931093209D5
:1002400033093409400941094209430928250C159D
:10025000013501450C750895019100C009500954FC
:100260000951150026FF7F350046FF7F66031055B4
:10027000FD751095039102550066000009521500A6
:1002800026FF003500461027750895019102095395
:100290001501250835014508750895019102095594
:1002A000A1020501093009311500250175019501EB
:1002B0009102C0050F095695019102950691030917
:1002C00057A1020B01000A000B02000A006614008D
:1002D00055FE150026B400350047A08C00006600CE
:1002E000007508950191025500660000C0050F6673
:1002F000031055FD150026FF7F350046FF7F751062
:1003000095016600005500C0050F095AA10285023B
:100310000922150125283501452875089501910206
:10032000095B095D150026FF003500461027950280
:100330009102095C095E66031055FD26FF7F46FFAA
:100340007F7510910245006600005500C0095FA14D
:1003500002850309221501252835014528750895D0
:100360000191020923150025013500450175049509
:100370000191020958A1020B01000A000B02000AB8
:1003800000750295029102C01580257F36F0D8468F
:100390001027096075089501910236F0D84610279C
:1003A000096195019102150026FF003500461027CE
:1003B00009630964750895024610279501C0096E06
:1003C000A102850409221501252835014528750853
:1003D000950191020970150026FF0035004610278F
:1003E000750895019102096F1580257F36F0D84672
:1003F000102795019102097166140055FE1500261B
:10040000FF00350047A08C00009102097226FF7F93
:1004100046FF7F66031055FD751095019102660039
:10042000005500C00973A102850509221501252880
:100430003501452875089501910209701601FF26BE
:10044000FF0036F0D8461027751095019102C009BB
:1004500074A1028506092215012528350145287554
:100460000895019102097509761580257F36F0D827
:10047000461027750895029102C00968A1028507F8
:100480000922150125283501452875089501910295
:10049000096C1500261027350046102775109501A8
:1004A000910209691581257F350046FF0075089581
:1004B0000C920201C00966A10285080501093009F4
:1004C000311581257F350046FF00750895029102A0
:1004D000C0050F0977A102850A09221501252835D3
:1004E0000145287508950191020978A10209790949
:1004F0007A097B15012503750895019100C0097CD7
:10050000150026FF00350046FF009102C00990A1AA
:1005100002850B0922252815013501452875089506
:10052000019102C00996A102850C099709980999C1
:10053000099A099B099C15012506750895019100EA
:10054000C0097DA102850D097E150026FF0035003A
:10055000461027750895019102C0096BA102850E0E
:1005600009221501252835014528750895019102B4
:10057000096D150026FF00350046FF00750895013E
:100580009102095166031055FD150026FF7F3500C5
:1005900046FF7F7510950191025500660000C00965
:1005A000ABA10285050925A1020926092709300901
:1005B0003109320933093409400941094209430923
:1005C00028250415013501450475089501B100C0C1
:1005D0000501093B150026FF01350046FF01750A9C
:1005E0009501B1027506B101C0050F0989A1028507
:1005F000060922252815013501452875089501B100
:1006000002098BA102098C098D098E25031501357C
:1006100001450375089501B100C009AC150027FF1D
:10062000FF0000350047FFFF000075109501B10085
:10063000C0097FA102850709807510950115003555
:100640000027FFFF000047FFFF0000B102098326DB
:10065000FF0046FF0075089501B10209A909AA75B6
:100660000195021500250135004501B10275069579
:1006700001B103C0C0090402000203000000092107
:1006800001010001220F0507058403400001070551
:10069000050340000100000000000000002A2B2894
:1006A000000000000000000000000000000000004A
:1006B00000000000002C9EB4A0A1A2A434A6A7A50F
:1006C000AE362D3738271E1F20212223242526B39E
:1006D00033B62EB7B89F8485868788898A8B8C8DA0
:1006E0008E8F909192939495969798999A9B9C9DB2
:1006F0002F3130A3AD350405060708090A0B0C0D90
:100700000E0F101112131415161718191A1B1C1D91
:10071000AFB1B0B5000403090422034100720064C4
:1007200000750069006E006F0020004C0065006FCE
:10073000006E006100720064006F001803410072D7
:10074000006400750069006E006F0020004C004CD2
:1007500000430012010002000000404123368000E7
:100760000101020001120100020200004041233693
:100770008000010102000100C18081C1C0000000B1
:1007800000240027002A002D003000000000002572
:100790000028002B002E003100000000002300265E
:1007A0000029002C002F00040404040403040502A3
:1007B00002020204030202020206060606060604FC
:1007C000040202020404080201104080401020408C
:1007D0008040800802040180402010020110801037
:1007E0002040400000000200080E00000304010049
:1007F0000B000000000000000000000000000000EE
:1008000000070605040100080A0B0C0D09080B007F
:100810000202020100090400000102020000052496
:10082000001001052401010104240206052406002C
:10083000010705810310004009040100020A0000BD
:100840000007050202400000070583024000000087
:10085000E60A091F19210624C82811241FBECFEF5C
:10086000DAE0DEBFCDBF13E0A0E0B1E0ECE0F5E6FA
:1008700002C005900D92A839B107D9F717E0A8E991
:10088000B3E001C01D92A731B107E1F718E0CAE556
:10089000D8E004C02297FE010E948032C035D10703
:1008A000C9F70E9493290C9484320C940000FB0138
:1008B000DC0102C001900D9241505040D8F70895DC
:1008C000DC0101C06D9341505040E0F70895FB01F9
:1008D000DC0101900D920020E1F70895FB019F01DA
:1008E000E8944230C4F04532B4F44A3029F497FB1E
:1008F0001EF4909581959F4F642F77270E946A324E
:10090000805D8A330CF0895D8193CB010097A1F75C
:1009100016F45DE251931082C9010C948F04DC013E
:10092000FC01672F71917723E1F7329704C07C9126
:100930006D9370836291AE17BF07C8F30895EF926D
:10094000FF920F931F93E0913004F091310420E067
:1009500030E040E050E061E0E62EF12C012D112D59
:1009600060E070E0CF01062E02C0969587950A944C
:10097000E2F780FF04C02E293F29402B512BEE0CBB
:10098000FF1C001F111F6F5F7F4F6830710551F70B
:10099000E0913204F091330460E070E0CF01062E64
:1009A00002C0969587950A94E2F780FF04C02E292D
:1009B0003F29402B512B6F5F7F4F6031710529F02C
:1009C000EE0CFF1C001F111FE9CFB901CA011F91D6
:1009D0000F91FF90EF900895EF92FF920F931F9366
:1009E000CF93DF93E0902604F09027040091280431
:1009F00010912904C2E1D4E0688179818A819B81C8
:100A0000A80197010E944F32299339934993599332
:100A100084E0C632D80781F7DF91CF911F910F9103
:100A2000FF90EF900895833069F1843028F481308D
:100A3000A9F08230E8F40AC08530C1F1853070F148
:100A40008630F1F1873009F050C044C080916900D0
:100A50008C7F862B80936900E89A089580916900C5
:100A6000660F660F837F862B80936900E99A08954D
:100A7000809169006295607F8F7C862B80936900EE
:100A8000EA9A0895809169006295660F660F607C0E
:100A90008F73862B80936900EB9A089580916A008A
:100AA0008C7F862B80936A00EC9A089580916A006F
:100AB000660F660F837F862B80936A00ED9A0895F8
:100AC00080916A006295607F8F7C862B80936A009C
:100AD000EE9A089580916A006295660F660F607CB9
:100AE0008F73862B80936A00EF9A08958091380463
:100AF00069B1E62FEC70E82BF0E0CF019595879572
:100B000095958795809338042091390430913A0463
:100B100040913B0450913C04EB5DFC4F8081992750
:100B200087FD9095A92FB92F820F931FA41FB51F82
:100B30008093390490933A04A0933B04B0933C040F
:100B4000809137048823B9F461FF15C081E0809358
:100B50003704809112039091130395958795AA27E6
:100B600097FDA095BA2F8093390490933A04A093EF
:100B70003B04B0933C0408951F920F920FB60F925E
:100B800011242F933F934F935F936F937F938F9392
:100B90009F93AF93BF93EF93FF9386E394E00E94FC
:100BA0007605FF91EF91BF91AF919F918F917F91CA
:100BB0006F915F914F913F912F910F900FBE0F90CA
:100BC0001F9018951F920F920FB60F9211242F931A
:100BD0003F934F935F936F937F938F939F93AF93C5
:100BE000BF93EF93FF9386E394E00E947605FF9115
:100BF000EF91BF91AF919F918F917F916F915F9195
:100C00004F913F912F910F900FBE0F901F9018950D
:100C1000282F853130F5A82FB0E0CD01880F991F1E
:100C2000FC0133E0EE0FFF1F3A95E1F7E80FF91FE3
:100C3000ED59FB4F80818823A1F00AC0E091DD05CA
:100C4000F091DE050084F185E02D822F099508954D
:100C500080818D7F8083AF5BBB4F15968C918823FD
:100C600069F308951F9380913D04882349F0809192
:100C70003D04882329F0E0E0F1E081918823E9F741
:100C800011E0812F0E9408061F5F1531D1F71F91D7
:100C90000895282F81E08093FB03253168F580912A
:100CA0003D04882329F0E8E1F1E081918823E9F708
:100CB00080913D04882311F080913D04E22FF0E003
:100CC000EE0FFF1FCF0153E0880F991F5A95E1F7F0
:100CD000E80FF91FED59FB4F10828091350328175B
:100CE00010F420933503E091DD05F091DE050284D8
:100CF000F385E02D822F09950895CF93DF93AC0102
:100D0000EB0186E0888380913503843111F420E083
:100D100033C0209135032F5F20933503215009C044
:100D2000809135038431C0F4809135038F5F8093C7
:100D3000350380913503E82FF0E0EE0FFF1FCF0160
:100D400033E0880F991F3A95E1F7E80FF91FED5945
:100D5000FB4F8081882321F7E22FF0E0EE0FFF1F89
:100D6000CF01A3E0880F991FAA95E1F7E80FF91FBB
:100D7000ED59FB4F81E080832983222369F482E0CF
:100D80008A8380913D04882309F472C0EDE2F1E08A
:100D900081918823E9F76CC01092FB0381E08A837C
:100DA000298130E0C901880F991FDC0163E0AA0F97
:100DB000BB1F6A95E1F7A80FB91FAD59BB4F8FEF65
:100DC0009FE719969C938E9318971B969C938E93EE
:100DD0001A97F90183E0EE0FFF1F8A95E1F7E20F02
:100DE000F31FEE0FFF1FEB59FB4F8FEF80831F9612
:100DF0001C921E921E9713968C93139714968C93A5
:100E0000149751961C921E92509784E690E0179684
:100E10009C938E931697FA01818111968C9311976A
:100E2000E091DD05F091DE050684F785E02DCA012D
:100E3000BD01099580913D04882329F0E5E4F1E0A6
:100E400081918823E9F780913D04882311F08091F6
:100E50003D0480913D04882329F0E5E5F1E081918E
:100E60008823E9F780913D04882311F080913D04A7
:100E70008FEF9FEF9C838B83DF91CF910895DC01EF
:100E800011966C91119770E0660F771FCB01E3E02C
:100E9000880F991FEA95E1F7680F791F6D597B4F0D
:100EA000E091DD05F091DE05028CF38DE02DCD01A2
:100EB000099580913D04882349F080913D04882361
:100EC00029F0EDE5F1E081918823E9F708951F937A
:100ED000CF93DF93FC0111811F3F09F41FE782814B
:100EE000813091F580913D04882349F080913D0443
:100EF000882329F0EFE7F1E081918823E9F71531A4
:100F000090F4E12FF0E0EE0FFF1FCF0163E0880FB8
:100F1000991F6A95E1F7E80FF91FED59FB4F8081A2
:100F2000882309F06AC0E12FF0E0EF5BFB4F858179
:100F3000882309F086C0E091DD05F091DE0506808A
:100F4000F781E02D812F44C0823009F043C08091A9
:100F50003D04882349F080913D04882329F0ECE882
:100F6000F1E081918823E9F70E943206C12FD0E099
:100F7000FE01EF5BFB4F8581882349F4E091DD059D
:100F8000F091DE050084F185E02D8FE7099515319C
:100F900088F4CE01880F991FFC0143E0EE0FFF1F7C
:100FA0004A95E1F7E80FF91FED59FB4F808188233F
:100FB00009F043C0CF5BDB4F8D81882309F041C02E
:100FC000E091DD05F091DE050680F781E02D8FE7E9
:100FD000099537C08330A9F580913D04882349F0F5
:100FE00080913D04882329F0EEE9F1E08191882386
:100FF000E9F7812F0E94080624C0E12FF0E0EE0FF0
:10100000FF1FCF0123E0880F991F2A95E1F7E80F12
:10101000F91FED59FB4F20812260E12FF0E0EE0F28
:10102000FF1FCF01A3E0880F991FAA95E1F7E80FF2
:10103000F91FED59FB4F208376CF8081826080833A
:10104000B9CFDF91CF911F910895BF92CF92DF92D8
:10105000EF92FF920F931F93CF93DF93EC010881E0
:1010600019812A813B81488359836A837B838885E0
:10107000882309F450C0BDA4EB2DF0E0EE0FFF1F54
:10108000EE0FFF1FEC0FFD1F401B510B620B730B8C
:101090004187528763877487DB2C0F2EF0E0EF2E99
:1010A000F0E0FF2EF0E00F2FF0E01F2FF02DCC240A
:1010B000ED2DF0E0EE0FFF1FEE0FFF1FEC0FFD1FF9
:1010C00061857285838594850E9456309B01AC01B1
:1010D000C801B7010E94532F7B018C01DD2019F458
:1010E000B8E0DB2E01C0DA94C39489E0C81601F79A
:1010F000C801B70120E030E040E151E40E94BB2F7D
:10110000F62FE72F782F692F8B2D8F5F8DA78930D2
:1011100060F01DA60AC081E088871C821D821E82A5
:101120001F82F0E0E0E070E060E02F2F3E2F472FBD
:10113000562FB901CA01DF91CF911F910F91FF90F6
:10114000EF90DF90CF90BF9008952F923F924F92F3
:101150005F926F927F928F929F92AF92BF92CF9247
:10116000DF92EF92FF920F931F935B016C011901C5
:101170002A0120E030E040E050E00E9406311816DD
:101180003CF4C601B50120E030E040E053E406C085
:10119000C601B50120E030E040E053EC0E940A3186
:1011A0002DEC3CEC4CEC5DE30E940A313B014C0120
:1011B000C201B10129EF3FEF4FEF5FEF0E94FB311A
:1011C0000E9456307B018C01C401B301A801970134
:1011D0000E94B72F8823D4F1C601B50120E030E08A
:1011E00040E050E00E94063118163CF4C601B501FB
:1011F00020E030E040E053E406C0C601B50120E045
:1012000030E040E053EC0E940A312DEC3CEC4CEC19
:101210005DE30E940A313B014C01C201B10123E0B0
:10122000660F771F881F991F2A95D1F762197309D6
:10123000840995090E9456307B018C01C401B301D9
:10124000A80197010E94063118161CF4C801B701C5
:101250002BC0C601B50120E030E040E050E00E9424
:10126000063118169CF4C601B50120E030E040E0DC
:1012700053E40E940A312DEC3CEC4CEC5DE30E94FF
:101280000A310E9423307B018C011CC0C601B501CC
:1012900020E030E040E053EC0E940A312DEC3CECC1
:1012A0004CEC5DE30E940A310E9423307B018C01EB
:1012B000C601B50120E030E040E050E00E94063178
:1012C00018164CF410950095F094E094E11CF11C74
:1012D000011D111D0DC0C601B50120E030E040E048
:1012E00050E00E94B72F87FD03C0EE24FF24870142
:1012F000B701C8011F910F91FF90EF90DF90CF9041
:10130000BF90AF909F908F907F906F905F904F9025
:101310003F902F900895AF92BF92CF92DF92EF92BD
:10132000FF920F931F937B018C0159016A0120E00A
:1013300030E040E050E00E9406311816CCF0C801C1
:10134000B70120E030E040E050E00E94B72F87FD79
:1013500005C020E030E040E050E045C0C801B701E2
:1013600020E030E040E050E00E94532F7B018C01F0
:10137000C601B5010E9456309B01AC01C801B701FE
:101380000E940A312DEC3CEC4CEC5DE30E940A31EA
:101390000E9423309B01AC016091100370911103F6
:1013A00088279927861B970B7C010027F7FC00955F
:1013B000102F2E153F054007510774F0CB01AA27C7
:1013C00097FDA095BA2F79018A0182179307A40788
:1013D000B50714F47C018D0122273327A9012E19AA
:1013E0003F09400B510BB901CA011F910F91FF90AA
:1013F000EF90DF90CF90BF90AF900895AF92BF92E3
:10140000CF92DF92EF92FF920F931F935B016C01DB
:1014100020E030E040E050E00E9406311816CCF4A5
:10142000C601B50120E030E040E053E40E940A31FB
:101430002DEC3CEC4CEC5DE30E940A3120E030E006
:1014400040EB50E40E940A310E9423307B018C0162
:101450002EC0C601B50120E030E040E053EC0E9410
:101460000A312DEC3CEC4CEC5DE30E940A3120E0AB
:1014700030E040EB50E40E940A310E9423307B01AF
:101480008C01C601B50120E030E040E050E00E9450
:10149000B72F87FD04C0EE24FF24870108C01095F4
:1014A0000095F094E094E11CF11C011D111DB701A1
:1014B000C8011F910F91FF90EF90DF90CF90BF90E8
:1014C000AF9008958093FB0308950895FC0185E093
:1014D000808387E493E008951092FB0308950895B4
:1014E00008950895FC01DB01828113968C93139774
:1014F000838114968C931497868197811B969C9375
:101500008E931A970895CF93DF93FC01EB018481AA
:1015100087FF03C080E090E003C0992787FD909586
:101520009D878C8760911203709113037595679561
:10153000882777FD8095982F2381332727FD3095C5
:10154000432F532F0E94FB3137E095958795779570
:1015500067953A95D1F77F876E87DF91CF91089590
:10156000DC01FB018DE0818312968C91129790E053
:101570009587848713968C911397992787FD90956B
:101580009787868714968C91149790E0918B808B27
:1015900015968D919C911697978386830895FB01EC
:1015A000DC0112968D919C911397958784870895FD
:1015B0000895FC01DB01828111968C93119781853E
:1015C00012968C9381E090E008950895EF92FF9237
:1015D0000F931F931092CD031092CE031092CF035E
:1015E0001092D0031092D1031092D2031092D30321
:1015F0001092D4031092D5031092FA03E6EDF3E0B3
:10160000119211921192119203E0EA3FF007C1F793
:1016100081E081831092FC031092FD031092FE037F
:101620001092FF03109200040E948026609305042C
:101630007093060480930704909308042091980304
:101640003091990340919A0350919B037B018C0147
:10165000E21AF30A040B150BE0920904F0920A0453
:1016600000930B0410930C0460930D0470930E040C
:1016700080930F04909310041F910F91FF90EF90AF
:1016800008958F929F92AF92BF92CF92DF92EF9286
:10169000FF920F931F9322273327281B390B37FF05
:1016A00005C09C0199248824839403C099249394B1
:1016B0008824121613065CF500D000D0B9018827E3
:1016C00077FD8095982FA0900E03B0900F03CC2447
:1016D000B7FCC094DC2C20911003309111034427F7
:1016E00037FD4095542FEDB7FEB7218332834383F6
:1016F000548320E030E040E050E0F8EEEF2EF3E0DD
:10170000FF2E012D112D0E94C62B9B013DC0809103
:10171000010490910204A0910304B0910404B7FD68
:1017200003C020E030E039C000D000D06627772722
:10173000621B730B882777FD8095982FA0900E036E
:10174000B0900F03CC24B7FCC094DC2C2091100384
:1017500030911103442737FD4095542FEDB7FEB764
:10176000218332834383548320E030E040E050E023
:10177000E8EEEE2EE3E0FE2E012D112D0E94C62B89
:1017800022273327261B370B0F900F900F900F90B7
:1017900037FF03C060E070E00CC0809110039091AF
:1017A00011032817390724F0BC016150704001C0B3
:1017B000B90170938900609388008AE0692D0E94C6
:1017C0001A288BE0682D0E941A281F910F91FF9014
:1017D000EF90DF90CF90BF90AF909F908F90089543
:1017E0008AE061E00E948D278BE061E00E948D27F6
:1017F00089E061E00E948D2780EA8093800081E18A
:101800008093810080E991E0909387008093860027
:101810000895CF92DF92EF92FF921F936A017B01AE
:10182000222311F410E001C012E080E0612F0E9439
:101830008D2781E0612F0E948D2782E0612F0E9419
:101840008D2710923704C0923904D0923A04E09266
:101850003B04F0923C04109238044A9B05C08091EE
:1018600038048160809338044B9B05C08091380414
:1018700082608093380482E061E00E94130583E077
:1018800061E00E9413051F91FF90EF90DF90CF90D1
:10189000089585E061E00E948D2786E060E00E9467
:1018A0008D2787E060E00E948D2784E061E00E9440
:1018B0008D2710922B0410922A0410922D0410925E
:1018C0002C0408950E94490C1092260410922704BB
:1018D000109228041092290408954F925F926F92FB
:1018E0007F928F929F92AF92BF92CF92DF92EF92B0
:1018F000FF920F931F93CF93DF932C01F894609086
:10190000390470903A0480903B0490903C047894A1
:10191000809110039091110320910E0330910F03D9
:10192000820F931F62E070E00E941A32CB010E9486
:10193000410B68EC70E080E090E00E94A626640114
:101940005301C0E0D0E080911003909111032091E9
:101950000E0330910F03820F931F62E070E00E942C
:101960001A32CB010E94410B60E971E080E090E007
:101970000E94A626F894E0903904F0903A04009171
:101980003B0410913C047894AE14BF04C006D10609
:1019900031F0219657016801C436D105A1F6809136
:1019A000120390911303AA2797FDA095BA2FF894DC
:1019B0008093390490933A04A0933B04B0933C0481
:1019C000789480E090E00E94410B6E147F048006C2
:1019D000910621F482E0F201848317C081E0F201D4
:1019E0008483F8944091390450913A0460913B0407
:1019F00070913C04789485E097E02AE030E00E9402
:101A0000B02A80E090E00E94410BDF91CF911F91BE
:101A10000F91FF90EF90DF90CF90BF90AF909F908D
:101A20008F907F906F905F904F900895AF92BF928C
:101A3000CF92DF92EF92FF920F931F9360915F041A
:101A40007091600480916104909162042BED3FE0FD
:101A500049E450E40E940A310E946D315B016C013F
:101A6000C801B7010E945630A60195010E940A31B3
:101A70000E9423307B018C0160911003709111034F
:101A800088279927861B970B9C01442737FD409593
:101A9000542FE216F3060407150774F0CB01AA27AA
:101AA00097FDA095BA2FA80197018E159F05A00755
:101AB000B10714F49C01AD01B901CA011F910F9146
:101AC000FF90EF90DF90CF90BF90AF9008952F924E
:101AD0003F924F925F926F927F928F929F92AF92BE
:101AE000BF92CF92DF92EF92FF920F931F93DF93FB
:101AF000CF93CDB7DEB72A970FB6F894DEBF0FBEEF
:101B0000CDBF1A012B010E9425086B837C838D8336
:101B10009E838091FB03882309F466C0D201C10132
:101B200057FE07C088279927DC0182199309A40969
:101B3000B509C397A105B10524F4662477244301B0
:101B40009BC366277727CB0162197309840995091E
:101B5000E3E0660F771F881F991FEA95D1F70E946F
:101B6000563020E030E040E05EE30E940A310E94FF
:101B700023307B018C016091100370911103882741
:101B80009927861B970B9C01442737FD4095542FBE
:101B9000E216F3060407150774F0CB01AA2797FD98
:101BA000A095BA2FA80197018E159F05A007B10730
:101BB00014F49C01AD01CA01B9010E945630209174
:101BC00006033091070340910803509109030E94D6
:101BD0000A3120E030E040E050E00E94532F0E94A4
:101BE00023303B014C0148C366247724430181E044
:101BF00090E09A83898388279927DC0182199309C9
:101C0000A409B5098F839887A987BA8789819A81A2
:101C1000880F991F6C0153E0CC0CDD1C5A95E1F73D
:101C2000C80ED91EA3E6B4E0CA0EDB1EF601808101
:101C30008370833009F018C38685978524853585A0
:101C4000E981FA8143E0EE0FFF1F4A95E1F78981B0
:101C50009A81E80FF91FEE0FFF1FEB59FB4F6081D0
:101C600070E080E090E0442737FD4095542F0E94BB
:101C7000FB3125E530E040E050E00E944F32790131
:101C80008A01D6011E962D913C911F9711968C9139
:101C9000863009F45CC1873090F4833009F4C1C008
:101CA000843030F4813009F1823009F0DDC26BC03C
:101CB000843009F4C6C0853009F0D6C238C18930F5
:101CC00009F4C7C18A3038F4873009F450C188302C
:101CD00009F0CAC25CC18B3009F42BC28B3008F406
:101CE000F0C18D3009F0C0C25CC220911003309168
:101CF000110388279927821B930B5C01CC24B7FC26
:101D0000C094DC2CEA14FB040C051D0574F0C90119
:101D1000AA2797FDA095BA2F570168018A159B0540
:101D2000AC05BD0514F45C016D01C401B3010E9452
:101D300056307B018C01C601B5010E9456302091BE
:101D4000F2023091F3024091F4025091F5020E94A8
:101D50000A319B01AC01C801B7010E94522F0E94B9
:101D600023303B014C0180913D04882309F47CC25F
:101D700080913D04882309F477C2EBEBF1E0819177
:101D80008823E9F771C2209110033091110388274D
:101D90009927821B930B5C01CC24B7FCC094DC2CEC
:101DA000EA14FB040C051D0574F0C901AA2797FD70
:101DB000A095BA2F570168018A159B05AC05BD0592
:101DC00014F45C016D01C401B3010E9456307B0123
:101DD0008C01C601B5010E9456302091F20230916B
:101DE000F3024091F4025091F5020E940A319B01E6
:101DF000AC01C801B7010E94522F0E9423303B0161
:101E00004C0180913D04882309F42EC280913D0449
:101E1000882309F429C2E9ECF1E081918823E9F7EC
:101E200023C280913D04882309F41EC280913D04A1
:101E3000882309F419C2E3EDF1E081918823E9F7E1
:101E400013C260915F04709160048091610490916D
:101E500062042FE632E143E85AE30E94532F609375
:101E60005F0470936004809361049093620420E0A7
:101E700030E040E050E40E940631181664F480E03F
:101E800090E0A0E0B0E080935F0490936004A093A2
:101E90006104B0936204E981FA81EE0FFF1FCF0164
:101EA000B3E0880F991FBA95E1F7E80FF91FED59D4
:101EB000FB4F6681778180E090E00E9454309B0167
:101EC000AC0160E070E080E89FE30E94160D7B01AA
:101ED0008C01C401B3010E9456305B016C01C80142
:101EE000B7010E9456302091F6023091F7024091DE
:101EF000F8025091F9020E940A319B01AC01C6011F
:101F0000B5010E94532F0E9423303B014C01809168
:101F10003D04882309F4A8C180913D04882309F475
:101F2000A3C1EFEDF1E081918823E9F79DC1809194
:101F30003D04882309F498C180913D04882309F465
:101F400093C1E9EEF1E081918823E9F78DC1809199
:101F50003D04882309F488C180913D04882309F455
:101F600083C1E7EFF1E081918823E9F77DC180919A
:101F70003D04882309F478C180913D04882309F445
:101F800073C1E9E0F2E081918823E9F76DC16F81C7
:101F9000788589859A85A80197010E94FB310E9466
:101FA000563020E030E040E05EE30E940A310E94BB
:101FB00023309B01AC0160911003709111038827BD
:101FC0009927861B970B5C01CC24B7FCC094DC2CB2
:101FD0002A153B054C055D0574F0CB01AA2797FD3A
:101FE000A095BA2F59016A0182179307A407B50774
:101FF00014F45C016D01C401B3010E9456307B01F1
:102000008C01C601B5010E9456302091FA02309130
:10201000FB024091FC025091FD020E940A319B019B
:10202000AC01C801B7010E94532F0E9423303B012D
:102030004C0180913D04882309F416C180913D0430
:10204000882309F411C1E8E1F2E081918823E9F7DE
:102050000BC16B817C818D819E81A80197010E94BB
:102060008B097B018C01C401B3010E9456305B01D6
:102070006C01C801B7010E9456302091EA023091EC
:10208000EB024091EC025091ED020E940A319B015B
:10209000AC01C601B5010E94532F0E9423303B01C1
:1020A0004C0180913D04882309F4DEC080913D04F9
:1020B000882309F4D9C0E4E2F2E081918823E9F7AA
:1020C000D3C06B817C818D819E81A80197010E9484
:1020D000FE097B018C01C401B3010E9456305B01F3
:1020E0006C01C801B7010E9456302091FE02309168
:1020F000FF0240910003509101030E940A319B01AD
:10210000AC01C601B5010E94532F0E9423303B0150
:102110004C0180913D04882309F4A6C080913D04C0
:10212000882309F4A1C0E0E3F2E081918823E9F774
:102130009BC06B817C818D819E81A80197010E944B
:10214000A5087B018C01C401B3010E9456305B01DC
:102150006C01C801B7010E9456302091EE02309107
:10216000EF024091F0025091F1020E940A319B016E
:10217000AC01C601B5010E94532F0E9423303B01E0
:102180004C0180913D04882309F46EC080913D0488
:10219000882309F469C0EDE3F2E081918823E9F72F
:1021A00063C02F5F3F4FB901882777FD8095982F37
:1021B0000E94563020E030E048E450E40E940A31AA
:1021C0000E94233022273327A901261B370B480BF7
:1021D000590B609110037091110388279927861B72
:1021E000970B5C01CC24B7FCC094DC2C2A153B0572
:1021F0004C055D0574F0CB01AA2797FDA095BA2F79
:1022000059016A0182179307A407B50714F45C010A
:102210006D01C401B3010E9456307B018C01C601DF
:10222000B5010E9456302091F2023091F3024091A4
:10223000F4025091F5020E940A319B01AC01C801E1
:10224000B7010E94522F0E9423303B014C01809124
:102250003D04882349F080913D04882329F0EBE474
:10226000F2E081918823E9F7A981BA811196BA83B6
:10227000A983559709F0CACC80911203909113035A
:10228000959587959C01442737FD4095542F8827C5
:102290009927DC01821B930BA40BB50B281639067A
:1022A0004A065B0634F022153305440555050CF04B
:1022B00073C0BA01A9014C595F4F6F4F7F4F8827F8
:1022C0009927DC01841B950BA60BB70B2816390642
:1022D0004A065B0634F042155305640575050CF09B
:1022E0005BC057FC03C0CB01BA0102C0BC01CD01E9
:1022F000621973098409950920E931E040E050E052
:102300000E94FB310E94563020E030E040E05EE366
:102310000E940A310E9423309B01AC01609110039E
:102320007091110388279927861B970B5C01CC2499
:10233000B7FCC094DC2C2A153B054C055D0574F0F8
:10234000CB01AA2797FDA095BA2F59016A018217E0
:102350009307A407B50714F45C016D01C401B30130
:102360000E9456307B018C01C601B5010E94563097
:1023700020910A0330910B0340910C0350910D03FF
:102380000E940A319B01AC01C801B7010E94532F82
:102390000E9423303B014C01C401B3010E9456301E
:1023A00020910203309103034091040350910503EF
:1023B0000E940A310E9423307B018C01609110033E
:1023C0007091110388279927861B970B9C0144273E
:1023D00037FD4095542FE216F3060407150774F0F5
:1023E000CB01AA2797FDA095BA2FA80197018E15BA
:1023F0009F05A007B10714F49C01AD01B901CA0102
:102400002A960FB6F894DEBF0FBECDBFCF91DF91F5
:102410001F910F91FF90EF90DF90CF90BF90AF9002
:102420009F908F907F906F905F904F903F902F90F4
:10243000089580913D04882349F080913D048823CC
:1024400029F0E9E5F2E081918823E9F781E08093C2
:10245000350323E634E0C90160E070E04AE751E06B
:102460000E9460040895FC01918182E080933E0403
:1024700080913F04846080933F0480913F04806199
:1024800080933F04109240049330A1F1943030F4D3
:10249000913071F0923009F083C01BC0953009F47F
:1024A0005BC0953008F43FC0963009F079C065C034
:1024B00080913D04882349F080913D04882329F0D0
:1024C000E2E7F2E081918823E9F780913F048D7F74
:1024D00064C080913D04882349F080913D048823A5
:1024E00029F0E4E8F2E081918823E9F780913F0444
:1024F000826053C080913D04882349F080913D045F
:10250000882329F0E5E9F2E081918823E9F7E09159
:10251000DD05F091DE050480F581E02D80E0099570
:1025200010924004089580913D04882349F08091E1
:102530003D04882329F0E6EAF2E081918823E9F757
:10254000E091DD05F091DE050480F581E02D81E06C
:1025500009950E941912089580913D04882349F03D
:1025600080913D04882329F0ECEAF2E081918823F0
:10257000E9F780913F04816010C080913D04882379
:1025800049F080913D04882329F0E2EBF2E081914B
:102590008823E9F780913F048E7F80933F0408955C
:1025A00080913D04882339F08FE591E0FC0101968C
:1025B000E491EE23D9F780913D04882311F08091B6
:1025C0003D040895FC0181818F3F61F40E9419123E
:1025D000E091DD05F091DE050284F385E02D8FE7C3
:1025E000099508950E94490608950F931F93DF935C
:1025F000CF9300D000D0CDB7DEB7FC01828185300B
:1026000069F48E010F5F1F4FC80164E070E00E9403
:10261000F820C8016AE574E00E947D0681E00F9011
:102620000F900F900F90CF91DF911F910F91089510
:10263000DF93CF9300D000D00F92CDB7DEB7FC016F
:102640008281863051F480E46AE574E045E050E030
:102650000E94B42010925A0415C0873011F080E017
:1026600012C089838FEF9FEF9B838A8384E18C83E1
:1026700083E08D8380E4BE016F5F7F4F45E050E0D3
:102680000E94B42081E00F900F900F900F900F9058
:10269000CF91DF910895FC0191818081813A31F4DD
:1026A000913059F4CF010E94181307C0813229F4E8
:1026B000993019F4CF010E94F51281E00895EF924C
:1026C000FF920F931F93DF93CF93CDB7DEB76C9735
:1026D0000FB6F894DEBF0FBECDBF85E097E00E9435
:1026E0007E28181619060CF0B3C285E097E00E9408
:1026F000A528982F81568A3108F49052973409F40E
:1027000062C0983438F4933409F448C0963409F020
:102710009FC289C09335B9F0963521F0923509F002
:1027200097C237C018E0E12EF12CEC0EFD1EC70158
:102730006BEB72E00E94CC2C8E010F5F1F4FC80123
:1027400068E070E013C0B6E1EB2EF12CEC0EFD1E3C
:10275000C70168EC72E00E94CC2C8E01015F1F4F14
:1027600060910004772767FD7095C8014AE00E94D8
:10277000FF2CC701B8010E94952CBC0185E097E0B1
:102780000E94F72AC8010E94302DC7010E94362DF1
:102790005FC28CEF93E00E946D0C5AC280911203CD
:1027A0009091130395958795AA2797FDA095BA2F29
:1027B000F8948093390490933A04A0933B04B09327
:1027C0003C04789445C285E097E00E94C22B643BAC
:1027D00071051CF464EB70E006C083E0653878078F
:1027E00014F064E873E08BE090E0689F9001699FCB
:1027F000300D789F300D1124309313032093120372
:102800008CEA96E2821B930B95958795AA2797FDF4
:10281000A095BA2F8093FC039093FD03A093FE0331
:10282000B093FF0315C285E097E00E94A528982F7A
:1028300081568A3108F49052973441F1983498F4D3
:10284000933409F452C0943438F4913409F467C1D4
:10285000923409F0FDC192C1943409F475C09634E4
:1028600009F0F6C1A0C09B3409F4D4C19C3438F4FB
:10287000993409F425C19A3409F0EAC1AEC19D34F6
:1028800009F4EFC0933509F0E3C1BCC085E097E0DF
:102890000E94C22B77FF05C0E0E070E080E060E0BE
:1028A00015C09B01693C710514F028EC30E0B901BA
:1028B000882777FD8095982F0E94563020E030E0E1
:1028C00048EC52E40E94BB2FE62F692F2E2F372FA2
:1028D000482F562FC901DA01809302039093030316
:1028E000A0930403B0930503B3C185E097E00E9471
:1028F000C22B77FF05C0E0E070E080E060E015C02B
:102900009B01693C710514F028EC30E0B90188277F
:1029100077FD8095982F0E94563020E030E048ECFB
:1029200052E40E94BB2FE62F692F2E2F372F482FFE
:10293000562FC901DA018093F2029093F302A0931B
:10294000F402B093F50284C185E097E00E94C22BA7
:1029500077FF05C0E0E070E080E060E015C09B011B
:10296000693C710514F028EC30E0B901882777FD47
:102970008095982F0E94563020E030E048EC52E4D9
:102980000E94BB2FE62F692F2E2F372F482F562F4F
:10299000C901DA018093EA029093EB02A093EC0262
:1029A000B093ED0255C185E097E00E94C22B77FFFE
:1029B00005C0E0E070E080E060E015C09B01693C8C
:1029C000710514F028EC30E0B901882777FD809577
:1029D000982F0E94563020E030E048EC52E40E94EC
:1029E000BB2FE62F692F2E2F372F482F562FC901C7
:1029F000DA018093EE029093EF02A093F002B0937D
:102A0000F10226C185E097E00E94C22B77FF05C046
:102A1000E0E070E080E060E015C09B01693C71057A
:102A200014F028EC30E0B901882777FD8095982FC5
:102A30000E94563020E030E048EC52E40E94BB2F68
:102A4000E62F692F2E2F372F482F562FC901DA0175
:102A50008093F6029093F702A093F802B093F902E4
:102A6000F7C085E097E00E94C22B77FF05C0E0E049
:102A700070E080E060E015C09B01693C710514F0D6
:102A800028EC30E0B901882777FD8095982F0E94C7
:102A9000563020E030E048EC52E40E94BB2FE62F95
:102AA000692F2E2F372F482F562FC901DA01809317
:102AB000FA029093FB02A093FC02B093FD02C8C0FF
:102AC00085E097E00E94C22B77FF05C0E0E070E050
:102AD00080E060E015C09B01693C710514F028ECB2
:102AE00030E0B901882777FD8095982F0E945630F5
:102AF00020E030E048EC52E40E94BB2FE62F692F23
:102B00002E2F372F482F562FC901DA018093FE024E
:102B10009093FF02A0930003B093010399C085E056
:102B200097E00E94C22B77FF05C0E0E070E080E0F4
:102B300060E015C09B01693C710514F028EC30E0A1
:102B4000B901882777FD8095982F0E94563020E0A4
:102B500030E048EC52E40E94BB2FE62F692F2E2F65
:102B6000372F482F562FC901DA018093060390931F
:102B70000703A0930803B09309036AC085E097E0B8
:102B80000E94C22B77FF05C0E0E070E080E060E0CB
:102B900015C09B01693C710514F028EC30E0B901C7
:102BA000882777FD8095982F0E94563020E030E0EE
:102BB00048EC52E40E94BB2FE62F692F2E2F372FAF
:102BC000482F562FC901DA0180930A0390930B0313
:102BD000A0930C03B0930D033BC085E097E00E94E7
:102BE000C22B9B01AC018091100390911103281717
:102BF000390774F5B90181E02039380714F06FE81E
:102C000071E077FF02C060E070E070930F036093A3
:102C10000E031EC085E097E00E94C22B9B01AC0111
:102C200080910E0390910F03821793078CF4121674
:102C300013061CF061E070E007C0B90181E02139A2
:102C4000380714F060E971E070931103609310038A
:102C50006C960FB6F894DEBF0FBECDBFCF91DF915B
:102C60001F910F91FF90EF900895CF92DF92EF9216
:102C7000FF920F931F93CF93DF93C2E1D4E000E262
:102C8000C02E03E0D02EE880F9800A811B81F60176
:102C900081916F010E945527AA2797FDA095BA2F11
:102CA0008E0D9F1DA01FB11F89939993A993B9936E
:102CB000F4E0C632DF0739F720912604309127046B
:102CC00040912804509129042F5F3F4F4F4F5F4F91
:102CD000209326043093270440932804509329041A
:102CE000C901DF91CF911F910F91FF90EF90DF907D
:102CF000CF90089580912A0490912B04829704F13B
:102D000010922B0410922A0480912C0490912D048F
:102D1000909331048093300480912E0490912F047D
:102D2000909333048093320410922D0410922C045B
:102D300010922F0410922E04109235041092340435
:102D400080912A0490912B048230910534F4892BD0
:102D500011F484E054C084E04CC09C0121703070B8
:102D600080FD49C086E00E944D28AA2797FDA095C6
:102D7000BA2F27E030E04091340450913504241BF1
:102D8000350B04C0880F991FAA1FBB1F2A95D2F7C5
:102D900020912C0430912D04282B392B30932D04B5
:102DA00020932C0487E00E944D28409134045091D8
:102DB0003504AA2797FDA095BA2F2FE030E0241BF9
:102DC000350B04C0880F991FAA1FBB1F2A95D2F785
:102DD00020912E0430912F04282B392B30932F046F
:102DE00020932E044F5F5F4F50933504409334047B
:102DF00085E061E005C02130310521F485E060E027
:102E00000E941A2880912A0490912B040196909395
:102E10002B0480932A0408950F931F93CF93DF937D
:102E2000EC018A89813009F0BAC129813A81243BB9
:102E300031051CF444EB50E007C0A90123E04538FC
:102E4000520714F044E853E08BE090E0489F900173
:102E5000499F300D589F300D112430931303209358
:102E600012038CEA96E2821B930B95958795AA270D
:102E700097FDA095BA2F8093FC039093FD03A09338
:102E8000FE03B093FF038989813021F48CEF93E036
:102E90000E946D0C6B81693C28F0E0E070E080E0FE
:102EA00060E40FC070E0882777FD8095982F0E941E
:102EB000563020E030E048EC52E40E94BB2FE62F71
:102EC000692F2E2F372F482F562FC901DA018093F3
:102ED000020390930303A0930403B09305036C8152
:102EE000693C28F0E0E070E080E060E40FC070E052
:102EF000882777FD8095982F0E94563020E030E09B
:102F000048EC52E40E94BB2FE62F692F2E2F372F5B
:102F1000482F562FC901DA018093F2029093F302F1
:102F2000A093F402B093F5026D81693C28F0E0E0D3
:102F300070E080E060E40FC070E0882777FD809546
:102F4000982F0E94563020E030E048EC52E40E9476
:102F5000BB2FE62F692F2E2F372F482F562FC90151
:102F6000DA018093EA029093EB02A093EC02B09313
:102F7000ED026E81693C28F0E0E070E080E060E402
:102F80000FC070E0882777FD8095982F0E945630FB
:102F900020E030E048EC52E40E94BB2FE62F692F7E
:102FA0002E2F372F482F562FC901DA018093EE02BA
:102FB0009093EF02A093F002B093F1026F81693C0D
:102FC00028F0E0E070E080E060E40FC070E0882767
:102FD00077FD8095982F0E94563020E030E048EC35
:102FE00052E40E94BB2FE62F692F2E2F372F482F38
:102FF000562FC901DA018093F6029093F702A0934D
:10300000F802B093F9026885693C28F0E0E070E0CE
:1030100080E060E40FC070E0882777FD8095982FEE
:103020000E94563020E030E048EC52E40E94BB2F72
:10303000E62F692F2E2F372F482F562FC901DA017F
:103040008093FA029093FB02A093FC02B093FD02DE
:103050006985693C28F0E0E070E080E060E40FC042
:1030600070E0882777FD8095982F0E94563020E0E9
:1030700030E048EC52E40E94BB2FE62F692F2E2F40
:10308000372F482F562FC901DA018093FE02909303
:10309000FF02A0930003B09301036A85693C28F006
:1030A000E0E070E080E060E40FC070E0882777FD2A
:1030B0008095982F0E94563020E030E048EC52E492
:1030C0000E94BB2FE62F692F2E2F372F482F562F08
:1030D000C901DA018093060390930703A0930803C4
:1030E000B09309036B85693C28F0E0E070E080E074
:1030F00060E40FC070E0882777FD8095982F0E94CC
:10310000563020E030E048EC52E40E94BB2FE62F1E
:10311000692F2E2F372F482F562FC901DA018093A0
:103120000A0390930B03A0930C03B0930D032E8519
:103130003F858091100390911103281739078CF473
:10314000C90121E08039920714F08FE891E097FFE0
:1031500002C080E090E090930F0380930E0383E61B
:103160008A8B2C853D8580910E0390910F038217E9
:1031700093070CF0D0C083E68A8B121613061CF05E
:1031800081E090E007C0C90121E08139920714F085
:1031900080E991E09093110380931003BCC08F3FAE
:1031A00009F0B9C080911203909113036BE070E0B5
:1031B0000E941A327A83698360910203709103033B
:1031C000809104039091050320E030E048EC52E444
:1031D0000E940A310E9428306B836091F202709144
:1031E000F3028091F4029091F5020E94233004E6EC
:1031F00010E0609FC001619F900D709F900D1124A1
:103200008C836091EA027091EB028091EC029091C4
:10321000ED020E942330609FC001619F900D709F5E
:10322000900D11248D836091EE027091EF028091D8
:10323000F0029091F1020E942330609FC001619FD3
:10324000900D709F900D11248E836091F602709105
:10325000F7028091F8029091F9020E942330609F5A
:10326000C001619F900D709F900D11248F8360911C
:10327000FA027091FB028091FC029091FD020E9483
:103280002330609FC001619F900D709F900D1124AD
:1032900088876091FE027091FF02809100039091F7
:1032A00001030E942330609FC001619F900D709FB9
:1032B000900D112489876091060370910703809116
:1032C0000803909109030E942330609FC001619F11
:1032D000900D709F900D11248A8760910A03709160
:1032E0000B0380910C0390910D030E942330609F8B
:1032F000C001619F900D709F900D11248B8780916C
:103300001003909111039D878C8780910E039091FB
:103310000F039F878E8788E08B8B82EFBE0140E48E
:1033200050E00E94211FDF91CF911F910F910895CE
:10333000DC0111969C9111978C91883009F4D2C0D0
:103340008930A8F4833009F462C0843030F48130CD
:1033500021F1823009F003C133C0853009F494C0F3
:10336000853008F47BC0863009F0F9C0A3C08C30EA
:1033700009F4CEC08D3038F48A3009F4C1C08B30E6
:1033800009F0EDC0C1C08E3009F4D8C08E3008F409
:10339000C3C0813F09F0E3C0DFC0CD010E943F07F9
:1033A00080913D04882309F4DAC080913D0488238C
:1033B00009F4D5C0EDE5F1E081918823E9F708959E
:1033C000692F70E0660F771FCB0143E0880F991FCC
:1033D0004A95E1F7680F791F6D597B4FE091DD0544
:1033E000F091DE050088F189E02DCD0109958091ED
:1033F0003D04882309F4B3C080913D04882309F477
:10340000AEC0EFECF2E081918823E9F70895692FCF
:1034100070E0660F771FCB0123E0880F991F2A9574
:10342000E1F7680F791F6D597B4FE091DD05F09151
:10343000DE050288F389E02DCD01099580913D04D8
:10344000882309F48CC080913D04882309F487C047
:10345000ECEDF2E081918823E9F70895692F70E09F
:10346000660F771FCB01F3E0880F991FFA95E1F7FC
:10347000680F791F6D597B4FE091DD05F091DE05F6
:103480000488F589E02D2BC0692F70E0660F771F47
:10349000CB0153E0880F991F5A95E1F7680F791F08
:1034A0006D597B4FE091DD05F091DE050688F789C7
:1034B000E02D15C0692F70E0660F771FCB0133E058
:1034C000880F991F3A95E1F7680F791F6D597B4F67
:1034D000E091DD05F091DE05008CF18DE02DCD0150
:1034E0000995089580913D048823C9F180913D0498
:1034F0008823A9F1E8E6F1E081918823E9F70895AE
:10350000CD010E9467070895CD010E94E21208953F
:10351000CD010E943312089580913D04882339F033
:1035200081E591E0FC010196E491EE23D9F78091C9
:103530003D048823A1F080913D04089580913D04CD
:10354000882369F080913D04882349F0EAEAF1E09C
:1035500081918823E9F70895CD010E940C17089501
:103560006F927F928F929F92AF92BF92CF92DF9293
:10357000EF92FF920F931F930E9435160E947A16C6
:103580000E9480269B01AC016093050470930604A1
:103590008093070490930804809198039091990375
:1035A000A0919A03B0919B0379018A01E81AF90A64
:1035B0000A0B1B0BE0920904F0920A0400930B041F
:1035C00010930C048091A0039091A103A091A203F9
:1035D000B091A30379018A01E81AF90A0A0B1B0BBF
:1035E000E0920D04F0920E0400930F041093100467
:1035F0008091A4039091A503A091A603B091A70385
:1036000079018A01E81AF90A0A0B1B0BD801C701D4
:10361000805D9740A040B04008F429C32093A403E4
:103620003093A5034093A6035093A703F8944091C9
:10363000390450913A0460913B0470913C047894B1
:10364000809112039091130395958795AA2797FD72
:10365000A095BA2F481B590B6A0B7B0B8091FC037A
:103660009091FD03A091FE03B091FF03481B590BFD
:103670006A0B7B0B4093B5035093B6036093B7037B
:103680007093B8038DEC93E00E94670DDC01CB01D1
:103690008093010490930204A0930304B093040464
:1036A0000E94410B6091B5037091B6038091B703FE
:1036B0009091B8032FEF3FEF40E050E00E94FB31C4
:1036C0002091120330911303442737FD4095542F66
:1036D0000E944F32C901DA01803010E8910710E0F2
:1036E000A10710E0B10724F08FEF9FE7A0E0B0E062
:1036F000813020E892072FEFA2072FEFB20724F4C2
:1037000081E090E8AFEFBFEF8093B5039093B603ED
:10371000A093B703B093B803809105049091060479
:10372000A0910704B09108048093980390939903A3
:10373000A0939A03B0939B030E94EC04A090120400
:10374000B0901304C0901404D0901504A092A90363
:10375000B092AA03C092AB03D092AC03209116049E
:103760003091170440911804509119042093AD032F
:103770003093AE034093AF035093B003E0901A042C
:10378000F0901B0400911C0410911D04E092B10301
:10379000F092B2030093B3031093B40380911E041C
:1037A00090911F04A0912004B09121048093C5033F
:1037B0009093C603A093C703B093C80380912204DB
:1037C00090912304A0912404B09125048093C9030F
:1037D0009093CA03A093CB03B093CC0380911403BE
:1037E00090911503A0911603B0911703A816B9067E
:1037F000CA06DB0644F4A0921403B0921503C092EB
:103800001603D09217038091B9039091BA03A09147
:10381000BB03B091BC038A159B05AC05BD0544F400
:10382000A092B903B092BA03C092BB03D092BC037A
:103830008091180390911903A0911A03B0911B0372
:10384000281739074A075B0744F42093180330937D
:10385000190340931A0350931B038091BD03909169
:10386000BE03A091BF03B091C00382179307A407C2
:10387000B50744F42093BD033093BE034093BF03C8
:103880005093C00380911C0390911D03A0911E03CF
:10389000B0911F03E816F9060A071B0744F4E092EB
:1038A0001C03F0921D0300931E0310931F038091CD
:1038B000C1039091C203A091C303B091C4038E15BC
:1038C0009F05A007B10744F4E092C103F092C20340
:1038D0000093C3031093C40300D000D020911403BD
:1038E0003091150340911603509117032A5B3F4F07
:1038F0004F4F5F4FE090B903F090BA030091BB03C4
:103900001091BC0381EF9FEFAFEFBFEFE80EF91E00
:103910000A1F1B1F8FEF90E0A0E0B0E0EDB7FEB7ED
:1039200081839283A383B483C601B501AA24BB24F7
:1039300065010E94C62BAC01CB01DA010F900F90FC
:103940000F900F908F3F9105A105B10529F024F04C
:103950008FEF90E0A0E0B0E0B7FF04C080E090E01F
:10396000A0E0B0E08093A9039093AA03A093AB03D7
:10397000B093AC0300D000D06091AD037091AE0362
:103980008091AF039091B0032091180330911903F7
:1039900040911A0350911B03215F3F4F4F4F5F4FE0
:1039A000A090BD03B090BE03C090BF03D090C003F1
:1039B0000AEBE02E0FEFF02E0FEF002F0FEF102F7E
:1039C000AE0CBF1CC01ED11E1FEFE12EF12C012D2D
:1039D000112DADB7BEB71196ED92FD920D931C93CC
:1039E000149786017501AA24BB2465010E94C62B89
:1039F000AC01CB01DA010F900F900F900F908F3F29
:103A00009105A105B10529F024F08FEF90E0A0E029
:103A1000B0E0B7FF04C080E090E0A0E0B0E08093A9
:103A2000AD039093AE03A093AF03B093B00300D067
:103A300000D06091B1037091B2038091B303909173
:103A4000B40320911C0330911D0340911E0350913B
:103A50001F03215F3F4F4F4F5F4FA090C103B090B6
:103A6000C203C090C303D090C403B1EFEB2EBFEFED
:103A7000FB2EBFEF0B2FBFEF1B2FAE0CBF1CC01ECA
:103A8000D11EAFEFEA2EF12C012D112DADB7BEB72F
:103A90001196ED92FD920D931C931497860175017A
:103AA000AA24BB2465010E94C62BAC01CB01DA011C
:103AB0000F900F900F900F908F3F9105A105B105CA
:103AC00029F024F08FEF90E0A0E0B0E0B7FF04C051
:103AD00080E090E0A0E0B0E08093B1039093B20367
:103AE000A093B303B093B40300D000D06091C5039A
:103AF0007091C6038091C7039091C803FFEF6F2EAA
:103B0000712C812C912CEDB7FEB761827282838279
:103B1000948220E030E040E050E0E12CE4E0FE2E32
:103B2000012D112DAA24BB2465010E94C62B609390
:103B3000C5037093C6038093C7039093C803609135
:103B4000C9037091CA038091CB039091CC03ADB7A8
:103B5000BEB711966D927D928D929C92149720E043
:103B600030E040E050E00E94C62B6093C9037093A0
:103B7000CA038093CB039093CC030F900F900F90C8
:103B80000F900E949F044B015C016091B5037091FE
:103B9000B6034091A9035091AA032091AD0330913F
:103BA000AE030091B1031091B203E090C503F09011
:103BB000C603C090C903D090CA038CEE95E00E9462
:103BC00009201092120410921304109214041092FF
:103BD00015041092160410921704109218041092F3
:103BE000190410921A0410921B0410921C041092D3
:103BF0001D0410921E0410921F04109220041092B3
:103C00002104109222041092230410922404109292
:103C10002504109226041092270410922804109272
:103C2000290480910D0490910E04A0910F04B0918D
:103C300010048155934CA040B040C8F085E097E057
:103C40000E947E281816190614F40E945F138091B2
:103C5000050490910604A0910704B0910804809394
:103C6000A0039093A103A093A203B093A3031F9179
:103C70000F91FF90EF90DF90CF90BF90AF909F900B
:103C80008F907F906F9008950E9480266093A40388
:103C90007093A5038093A6039093A7036093980362
:103CA0007093990380939A0390939B0360939C0372
:103CB00070939D0380939E0390939F031092A8039B
:103CC0001092A9031092AA031092AB031092AC03B6
:103CD0001092AD031092AE031092AF031092B00396
:103CE0001092B1031092B2031092B3031092B40376
:103CF0001092B5031092B6031092B7031092B80356
:103D000085E097E060E072EC0E947D28409112030C
:103D10005091130355954795662757FD6095762F6B
:103D20008091FC039091FD03A091FE03B091FF03ED
:103D3000481B590B6A0B7B0B81E194E021E00E9448
:103D4000090C0E94620C8CE493E09093DE05809352
:103D5000DD058BE493E19093F6058093F50588E902
:103D600099E19093F8058093F7050E94F00B8091FC
:103D7000100390911103181619061CF480E090E0CE
:103D800001C0019790938900809388008CEF93E0A5
:103D90000E946D0C0895FC0191818081813A31F47B
:103DA0009130A9F080E09330A9F411C0813289F4F8
:103DB000993069F0993068F09A3031F09B3049F4CD
:103DC00082818093360303C082818093370381E030
:103DD000089580E00895EF92FF920F931F938C0156
:103DE000E62EDC01ED91FC910480F581E02D099532
:103DF000F82ED801ED91FC910680F781E02DC801E5
:103E00006E2D09958F2D90E01F910F91FF90EF90EF
:103E100008951092DF051092E3051092E2058CE6FA
:103E200093E09093E1058093E00508959C01AB0138
:103E300085E0B9010E946820089585E00E945F2016
:103E40000895EF92FF920F931F93DF93CF930F92FA
:103E5000CDB7DEB789838B017A0184E0BE016F5F45
:103E60007F4F41E050E00E943C2184E4B801A7016B
:103E70000E943C210F90CF91DF911F910F91FF90F5
:103E8000EF90089582E048E050E00E94211F0895DD
:103E9000FC01168217821086118612861386148200
:103EA0003496BF010E94421F0895DC01683810F06B
:103EB000685829C0E62FF0E067FF13C0E058F040D3
:103EC00081E090E002C0880F991FEA95E2F78095A3
:103ED00014962C911497282314962C93149760E031
:103EE00012C0EB56F94F6491662319F420E030E0DC
:103EF0001DC067FF08C014968C9114978D7F14968F
:103F00008C9314976F77FD0190E0662321F08681F2
:103F1000861709F416829F5F31969630B1F7CD016E
:103F20001496BD010E94421F21E030E0C9010895AE
:103F3000CF93DF93DC01683810F0685825C0E62F76
:103F4000F0E067FF12C0E058F04081E090E002C06E
:103F5000880F991FEA95E2F714962C911497282B55
:103F600014962C93149760E00FC0EB56F94F6491B0
:103F70006623D9F167FF08C014968C91149782606C
:103F800014968C9314976F7716968C9116978617C4
:103F9000A9F117968C911797861781F118968C9135
:103FA0001897861759F119968C911997861731F140
:103FB0001A968C911A97861709F11B968C911B976C
:103FC0008617E1F0ED01E0E0F0E09E2F8E8188237E
:103FD00021F4EA0FFB1F668306C09F5F319621968E
:103FE000E630F10591F7963049F481E090E01396C0
:103FF0009C938E93129720E030E007C0CD01149679
:10400000BD010E94421F21E030E0C901DF91CF9144
:1040100008958F929F92AF92BF92CF92EF920F939B
:10402000DF93CF93CDB7DEB72B970FB6F894DEBFF3
:104030000FBECDBF6983672F770F770B6A834B83E2
:104040002C830D83EE82CF828886BB27AB2D9A2DE1
:10405000892D8987C501AA27BB278A878B2C99249C
:10406000AA24BB248B8684E0BE016F5F7F4F4BE0A8
:1040700050E00E94211F2B960FB6F894DEBF0FBEB2
:10408000CDBFCF91DF910F91EF90CF90BF90AF90C8
:104090009F908F90089580E866E671E04FE055E0CC
:1040A0000E94B4200895FC0180818F5F808380E8A6
:1040B00065E776E040E250E00E94B42008959FB7A3
:1040C000F89487708093E9008091F2009FBF089573
:1040D000282F8091EF058823B9F057FF19C014C02D
:1040E0009093EE058091F1008193E217F307C1F7F9
:1040F0004115510539F08091F200882319F48BE6BF
:104100008093E800AFBF02C04FEF5FEFCA01089590
:10411000AFB7F89427702093E9008091F200282F20
:1041200030E0241735070CF4A901FB019B01240F93
:10413000311D94E6DACFDF93CF930F92CDB7DEB780
:10414000BE016F5F7F4F41E050E00E946820019701
:1041500019F02FEF3FEF03C08981282F30E0C9010C
:104160000F90CF91DF910895FF920F931F93F82E38
:10417000142F052F4091F2055091F305212F302F78
:10418000C901DC01FB016EEF29C0F7FE02C094916A
:1041900001C090812091F0053091F1052417350779
:1041A000ACF48091E8008570E1F38091E80082FF33
:1041B00003C02FEF3FEF17C09093F100C9010196A4
:1041C0008F739070892B11F46093E8002F5F3F4F3D
:1041D0003093F1052093F005119731961097A9F6C9
:1041E000812F902F9C01C9011F910F91FF9008957D
:1041F0009C018091E80082FFFCCFF901260F311D60
:1042000003C08091F1008193E217F307D1F784E6B0
:104210008093EE058BEF8093E800CB0108958093A7
:10422000E9008091F200882319F08AE38093E80086
:1042300008958BEC9EE19093F6058093F505089523
:104240001092EF0581E08093D70080EA8093D80038
:1042500082E189BD09B400FEFDCF61E070E080E03D
:1042600090E00E94A62680E98093D8008CE080939D
:10427000E2001092E00008955F926F927F928F9219
:104280009F92AF92BF92CF92DF92EF92FF920F93E5
:104290001F93CF93DF93E82E842E752E8091EF0528
:1042A000882371F18B01242F352FC901EC017AEF9E
:1042B000F72E67E0962E9E2050E4552E8E2D90E02E
:1042C00040E2A42EB12CA822B9223AE3632E20E4C6
:1042D000C22ED12CC822D92258C09FB7F8949092F0
:1042E000E9008091E80085FD02C020E004C08091D3
:1042F000F200252D281B9FBF222361F4FA9419F4A4
:104300002FEF3FEF4DC061E070E080E090E00E9451
:10431000A6263BC0822F90E0C817D9070CF42C2F9B
:10432000C21BD1094FB7F8949092E900A114B104CF
:1043300021F406C01092F10021502223D9F719C0B0
:10434000E7FC03C0F801922F10C0C801322F06C04D
:10435000FC010196E491E093F10031503323C1F761
:1043600006C081918093F10091509923D1F7020FFB
:10437000111D8091E80085FF05C0209729F4C11424
:10438000D10411F06092E8004FBF209709F0A5CF4B
:104390005D9884E68093ED05282D372DC9019C0199
:1043A000C901DF91CF911F910F91FF90EF90DF90A6
:1043B000CF90BF90AF909F908F907F906F905F90C5
:1043C00008951F920F920FB60F9211240F931F930F
:1043D0002F933F934F935F936F937F938F939F930D
:1043E000AF93BF93EF93FF93DF93CF93CDB7DEB738
:1043F000C054D040DEBFCDBF8091E1001092E100FB
:10440000982F83FF0FC01092E90081E08093EB00AA
:104410001092EC0082E38093ED001092EF0588E0AB
:104420008093F00092FF41C083E08093E900809187
:10443000F200882319F08AE38093E8008FB7F8949C
:1044400092E09093E9009091F2008FBF992321F0C0
:1044500085E097E00E940B290E941D1F8823B9F078
:104460008091F7059091F805892B89F08E010F5FF7
:104470001F4FC80160E470E00E94161FBC0197FD49
:1044800006C0E091F705F091F805C8010995809103
:10449000ED05882351F08091ED0581508093ED0565
:1044A0008091ED05882309F45D9AC05CDF4FDEBF83
:1044B000CDBFCF91DF91FF91EF91BF91AF919F91D0
:1044C0008F917F916F915F914F913F912F911F91AC
:1044D0000F910F900FBE0F901F9018950F931F9381
:1044E000DF93CF930F92CDB7DEB719828E010F5FA6
:1044F0001F4FC8010E943129C8010E9453208981A1
:1045000090E00F90CF91DF911F910F9108951F922E
:104510000F920FB60F921124EF92FF921F932F93D9
:104520003F934F935F936F937F938F939F93AF933B
:10453000BF93EF93FF93DF93CF93CDB7DEB7619730
:10454000DEBFCDBF1092E9008091E80083FF15C166
:10455000FE0131969E01275F3F4F03C08091F1001D
:104560008193E217F307D1F784E68093EE0582EF9B
:104570008093E800998197FF05C08091E80080FF53
:10458000FCCF03C08EEF8093E800292F30E0C901F3
:1045900080769070892B09F0C4C08A81882329F421
:1045A0001092F1001092F100DDC0813009F4DAC000
:1045B000833009F4D7C0853049F48091E80080FF4A
:1045C000FCCF8B8180688093E300CCC0863009F0FB
:1045D0007CC01C81EF80F8841230C1F51092E90094
:1045E0001092F1051092F0051092F3051092F20569
:1045F0000E946E2299E0FE013996DF01292F1D925B
:104600002A95E9F799871A8791E09E8790E8988B19
:104610009AEF998B2091F0053091F105275F3F4F7C
:104620003C872B878D871092E9001092F10510923C
:10463000F005F092F305E092F20580E0BF0149E059
:1046400050E00E94B4200E946E228CC01092E900BB
:104650001092F1051092F005F092F305E092F20548
:10466000123241F482E290E00E944B20892B09F43F
:104670007DC078C0113079F488E0E816F10419F4AF
:1046800081E08093F4058091F405882309F072C0DD
:10469000E3E5F7E013C0133009F068C08B8188238D
:1046A00019F4E5E1F7E00AC0823019F4E9E1F7E036
:1046B00005C0813009F05AC0EBE3F7E0449180E88F
:1046C000BF0150E00E94B4204DC0873009F44EC0B5
:1046D000883021F481E08093F10044C0893009F0F2
:1046E00041C023703070232B09F040C0E8E7F7E0A9
:1046F00091E031E026E39093E9003093EB00849160
:104700008093EC002093ED009F5F3196963099F7EF
:104710008EE78093EA001092EA008B818093EF0588
:1047200021C08F8198851092E9001092F1051092B6
:10473000F0059093F3058093F2058D81882329F489
:10474000CE0101960E943D290BC0823079F4E091A0
:10475000F505F091F605CE0101960995811181E0EC
:10476000882321F08EEF8093E80007C081E28093D8
:10477000EB0003C0E5E6F7E0A1CF6196DEBFCDBF59
:10478000CF91DF91FF91EF91BF91AF919F918F9169
:104790007F916F915F914F913F912F911F91FF906A
:1047A000EF900F900FBE0F901F90189520911A0652
:1047B00030E080911906281B3109C9010895409104
:1047C000190680911A06481718F02FEF3FEF0AC01C
:1047D000E42FF0E0E750FA4F8081282F30E04F5F60
:1047E00040931906C9010895E091190680911A06AF
:1047F000E81718F0EFEFFFEF06C0F0E0E750FA4FD0
:104800008081E82FF0E0CF010895089510924106CD
:104810001092400688EE93E0A0E0B0E0809342065C
:1048200090934306A0934406B09345068AE793E02D
:1048300090933F0680933E060895CF92DF92EF92C9
:10484000FF920F931F93CF93DF937C016B018A013B
:1048500080913D068823A1F0C0E0D0E00DC0D701D3
:10486000ED91FC91D601AC0FBD1F0190F081E02DC0
:10487000C7016C9109952196C017D10780F304C038
:10488000CB01642F0E947E24C801DF91CF911F913C
:104890000F91FF90EF90DF90CF900895DF93CF932B
:1048A0000F92CDB7DEB7FC01698380913D06882366
:1048B000C9F080913C06803238F081E090E093832B
:1048C000828320E030E015C080913B06E82FF0E0C5
:1048D000E55EF94F998190838F5F80933B068093CB
:1048E0003C0605C0CE01019661E00E947E2421E0D5
:1048F00030E0C9010F90CF91DF910895482F6132C8
:1049000010F081E0089580914A06843011F082E031
:10491000089560939506A4E7B6E0842F9C01F90101
:1049200002C081918D938E2F841B8617D0F380E077
:1049300008951F920F920FB60F9211242F933F9359
:104940004F935F936F937F938F939F93AF93BF9397
:10495000EF93FF938091B90090E0887F907080364C
:10496000910509F4F2C081369105CCF588329105A4
:1049700009F47BC089329105B4F48031910509F4C2
:104980006FC0813191053CF4009709F447C1089745
:1049900009F04FC165C08831910509F466C0809760
:1049A00009F047C182C08034910509F4A4C0813464
:1049B000910544F48033910509F482C0C89709F049
:1049C00038C189C08035910509F489C088359105C1
:1049D00009F496C08834910509F02BC1AEC088391E
:1049E000910509F413C189399105ECF488379105D3
:1049F00009F4ABC0893791054CF48836910509F468
:104A0000A4C08037910509F014C19FC08838910572
:104A100009F4FCC08039910509F49DC080389105E6
:104A200009F007C198C0803B910509F4C6C0813BDD
:104A300091054CF4803A910509F49FC0883A91059C
:104A400009F0F7C0BAC0803C910509F4E3C0883C86
:104A5000910509F4DFC0883B910509F0EAC0C2C0A6
:104A600080914B068093BB00CFC0909172068091DD
:104A70007306981768F490917206E92FF0E0EE5AE9
:104A8000F94F80818093BB009F5F90937206BCC0FA
:104A900080914C06882309F44BC085ED8093BC00BF
:104AA0008091BC0084FDFCCFC2C080E28093B70639
:104AB00085ED8093BC008091BC0084FDFCCFB7C025
:104AC00080E38093B70685ED8093BC008091BC00A5
:104AD00084FDFCCFACC088E38093B7069BC0809177
:104AE00072069091BB00E82FF0E0EE5AF94F9083E8
:104AF0008F5F80937206909172068091730682C0D8
:104B0000809172069091BB00E82FF0E0EE5AF94FC9
:104B100090838F5F8093720680914C06882341F0CA
:104B200085ED8093BC008091BC0084FDFCCF7FC0EC
:104B300081E080934D0684EA6EC085ED8093BC00D1
:104B40008091BC0084FDFCCF72C083E080934A0654
:104B50001092B60659C08091B606803208F056C051
:104B60008091B6069091BB00E82FF0E0EA56F94F2D
:104B700090838F5F8093B60647C08091B6068032DF
:104B800030F4E091B606F0E0EA56F94F108285ED78
:104B90008093BC008091BC0084FDFCCF10924A063B
:104BA0006091B606E0915006F091510686E996E0D4
:104BB00070E009951092B6062DC084E080934A06F5
:104BC0001092940610929506E0914E06F0914F06D1
:104BD000099580919506882329F481E080939506B4
:104BE0001092740690919406E92FF0E0EC58F94F7A
:104BF00080818093BB009F5F909394069091940670
:104C000080919506981710F485EC01C085E8809393
:104C1000BC000FC085EC8093BC0009C01092B706A1
:104C200085ED8093BC008091BC0084FDFCCF109288
:104C30004A06FF91EF91BF91AF919F918F917F9124
:104C40006F915F914F913F912F910F900FBE0F90F9
:104C50001F9018951F920F920FB60F9211242F9349
:104C60003F938F939F93AF93BF938091BC06909196
:104C7000BD06A091BE06B091BF063091C006019658
:104C8000A11DB11D232F2D5F2D3720F02D5701962B
:104C9000A11DB11D2093C0068093BC069093BD0654
:104CA000A093BE06B093BF068091B8069091B90656
:104CB000A091BA06B091BB060196A11DB11D8093CB
:104CC000B8069093B906A093BA06B093BB06BF91FD
:104CD000AF919F918F913F912F910F900FBE0F90A9
:104CE0001F9018958FB7F8942091BC063091BD069F
:104CF0004091BE065091BF068FBFB901CA01089509
:104D00009FB7F8942091B8063091B9064091BA0641
:104D10005091BB0686B5A89B06C08F3F21F02F5F40
:104D20003F4F4F4F5F4F9FBF542F432F322F2227AC
:104D3000280F311D411D511D82E0220F331F441FDA
:104D4000551F8A95D1F7B901CA0108959B01AC019D
:104D50007FB7F8948091B8069091B906A091BA06F1
:104D6000B091BB0666B5A89B05C06F3F19F00196D0
:104D7000A11DB11D7FBFBA2FA92F982F8827860F9D
:104D8000911DA11DB11D62E0880F991FAA1FBB1FB5
:104D90006A95D1F7BC012DC0FFB7F8948091B80691
:104DA0009091B906A091BA06B091BB06E6B5A89B52
:104DB00005C0EF3F19F00196A11DB11DFFBFBA2F2D
:104DC000A92F982F88278E0F911DA11DB11DE2E0FC
:104DD000880F991FAA1FBB1FEA95D1F7861B970B57
:104DE000885E9340C8F221503040404050406851A6
:104DF0007C4F211531054105510571F608957894D0
:104E000084B5826084BD84B5816084BD85B58260CF
:104E100085BD85B5816085BDEEE6F0E0808181606D
:104E20008083E1E8F0E0108280818260808380816D
:104E300081608083E0E8F0E0808181608083E1E947
:104E4000F0E0808182608083808181608083E0E9FE
:104E5000F0E0808181608083E1ECF0E0808184601B
:104E60008083808182608083808181608083E3ECA5
:104E7000F0E0808181608083E0ECF0E080818260FE
:104E80008083E2ECF0E0808181608083EAE7F0E0FB
:104E90008081846080838081826080838081816062
:104EA00080838081806880830895823108F08251F8
:104EB000E82FF0E0EF5FF74FE49120917B008E2F19
:104EC00086958695869590E08170907035E0880F84
:104ED000991F3A95E1F72F7D282B20937B00E770EF
:104EE000809138038295880F880F807C8E2B809369
:104EF0007C0080917A00806480937A0080917A00AF
:104F000086FDFCCF2091780040917900942F80E0BD
:104F100030E0282B392BC9010895CF93DF93482F18
:104F200050E0CA018B53984FFC0134914955584FBA
:104F3000FA018491882369F190E0880F991FFC01A0
:104F4000E358F84FA591B491FC01E557F84FC5918E
:104F5000D491662351F42FB7F8948C91932F9095A8
:104F600089238C93888189230BC0623061F42FB729
:104F7000F8948C91932F909589238C938881832B1F
:104F800088832FBF06C09FB7F8948C91832B8C9396
:104F90009FBFDF91CF910895883071F1893068F417
:104FA000823031F1833020F4813009F042C01DC0DD
:104FB000833089F08430E9F512C08B3059F18C30A0
:104FC00028F48930E9F08A30A1F51EC08C3031F127
:104FD0008E3079F529C0809180008F7703C0809151
:104FE00080008F7D80938000089584B58F7702C004
:104FF00084B58F7D84BD0895809190008F7707C020
:10500000809190008F7D03C080919000877F809376
:10501000900008958091C0008F7703C08091C000F8
:105020008F7D8093C00008958091C200877F809318
:10503000C2000895FF920F931F93F62E482F50E061
:10504000CA018D51984FFC012491CA018B53984F8E
:10505000FC0114914955584FFA0104910023C9F0FD
:10506000222319F0822F0E94CC27E02FF0E0EE0FD0
:10507000FF1FE557F84FA591B4919FB7F894FF2013
:1050800021F48C911095812302C08C91812B8C93FB
:105090009FBF1F910F91FF9008950F931F93482F6B
:1050A00050E0CA018D51984FFC012491CA018B53E5
:1050B000984FFC0104914955584FFA01149111235E
:1050C00019F420E030E015C0222319F0822F0E944D
:1050D000CC27812F90E0880F991F8756984FFC01AD
:1050E000A591B4918C9120E030E0802311F021E073
:1050F00030E0C9011F910F91089508952091010793
:10510000309102078091030790910407281B390B07
:105110002F733070C9010895209101073091020763
:1051200080910307909104072817390719F42FEF8E
:105130003FEF09C0E0910307F0910407EF53F94FE7
:105140008081282F30E0C901089520910107309116
:10515000020780910307909104072817390719F473
:105160002FEF3FEF13C0E0910307F0910407EF53D7
:10517000F94F2081809103079091040701968F7366
:105180009070909304078093030730E0C90108955D
:10519000109208071092070788EE93E0A0E0B0E0B5
:1051A0008093090790930A07A0930B07B0930C070D
:1051B0008AE893E0909306078093050708950F937C
:1051C0001F93DF93CF930F92CDB7DEB78C01698326
:1051D00080914003882369F083E0BE016F5F7F4FB9
:1051E00041E050E00E943C211816190614F49C017D
:1051F00007C081E090E0F8019383828320E030E0F3
:10520000C9010F90CF91DF911F910F91089583E015
:105210000E940F210895CF93DF9312C082E00E9475
:105220009B202FEF8F3F9207C9F0E0910107F0918B
:105230000207EF53F94F8083D0930207C093010711
:10524000C0910107D09102072196CF73D070809151
:10525000030790910407C817D90701F7DF91CF9191
:105260000895FC0180818E5F808380E86DE078E0A6
:1052700042E450E00E94B4200895FC0181819081B5
:10528000913A59F4813209F04CC080E069E373E04F
:1052900047E050E00E94B42042C0913209F041C082
:1052A000803239F489E393E067E070E00E94F820EF
:1052B00036C0823209F035C08281809340038091EC
:1052C000390390913A03A0913B03B0913C03805B7A
:1052D0009440A040B04019F58091400380FD12C079
:1052E00087E797E790930108809300082BE088E117
:1052F00090E00FB6F894A895809360000FBE2093BD
:1053000060000DC088E10FB6F894809360001092A1
:1053100060000FBEA895109201081092000881E06D
:10532000089580E00895CF93DF930E94FF2685EFD4
:1053300095E00E9420210E94441EC0E0D0E00E941F
:10534000B01A2097E1F30E940000F9CFCF92DF92CC
:10535000EF92FF920F931F93CF93DF937C016B012A
:105360008A01C0E0D0E00FC0D6016D916D01D70178
:10537000ED91FC910190F081E02DC7010995C80FD6
:10538000D91F015010400115110571F7CE01DF91B1
:10539000CF911F910F91FF90EF90DF90CF900895E4
:1053A000EF92FF920F931F938C01DC01ED91FC9122
:1053B0000190F081E02D6DE009957C01D801ED911F
:1053C000FC910190F081E02DC8016AE009959C01F3
:1053D0002E0D3F1DC9011F910F91FF90EF90089571
:1053E000CF93DF93EC016115710519F420E030E0F3
:1053F0000FC0DB010D900020E9F71197A61BB70B3A
:10540000E881F9810280F381E02DAD0109959C01CD
:10541000C901DF91CF9108954F925F927F928F9251
:105420009F92AF92BF92CF92DF92EF92FF920F9333
:105430001F93DF93CF93CDB7DEB7A1970FB6F89444
:10544000DEBF0FBECDBF2C01742ECB01223008F47D
:105450002AE019A231E2C32ED12CCC0EDD1E822E01
:105460009924AA24BB24672D752FA50194010E94BD
:105470002D3279018A01C801B701A50194010E946A
:10548000FB31472D461B0894C108D1084A3014F45B
:10549000405D01C0495CF6014083E114F10401055F
:1054A000110521F07E2C5F2DC801DDCFC201B601B0
:1054B0000E94F029A1960FB6F894DEBF0FBECDBFB3
:1054C000CF91DF911F910F91FF90EF90DF90CF90E0
:1054D000BF90AF909F908F907F905F904F90089576
:1054E000CF92DF92EF92FF920F931F93CF93DF93B0
:1054F000EC016A017B012115310541F4E881F98154
:105500000190F081E02D642F09951FC02A303105EC
:10551000D1F477FF17C0E881F9810190F081E02D87
:105520006DE209958C0144275527BA014C195D0994
:105530006E097F09CE012AE00E940C2A9801280FEB
:10554000391F04C02AE00E940C2A9C01C901DF9186
:10555000CF911F910F91FF90EF90DF90CF90089522
:10556000EF92FF920F931F937C010E94702A8C018F
:10557000C7010E94D0299C01200F311FC9011F9132
:105580000F91FF90EF900895AF92BF92CF92DF926C
:10559000EF92FF920F931F93CF93DF935C016B0108
:1055A000EE24FF24C0E0D0E010C0D501ED91FC91C5
:1055B00000811181C601BE010E940F2C682FC50118
:1055C000F8010995E80EF91E2196F601848195816E
:1055D000C817D90750F3C701DF91CF911F910F91E1
:1055E000FF90EF90DF90CF90BF90AF900895EF9233
:1055F000FF920F931F937C010E94C42A8C01C70164
:105600000E94D0299C01200F311FC9011F910F91C9
:10561000FF90EF900895CF93DF93EC010E947226E4
:10562000688779878A879B87E881F9810084F1857B
:10563000E02DCE0109959C0197FF15C00E947226AE
:10564000288539854A855B85621B730B840B950B16
:105650002C813D814E815F81621773078407950716
:1056600018F32FEF3FEFC901DF91CF910895CF934A
:10567000DF93EC01CE010E940B2B9C0197FD0EC025
:105680008D32910559F0C0970A9740F0E881F98171
:105690000680F781E02DCE010995ECCFC901DF919D
:1056A000CF9108959F92AF92BF92CF92DF92EF92E7
:1056B000FF920F931F93CF93DF936C01B62E0E943E
:1056C000372BEC0197FF04C0EE24FF2487014CC068
:1056D0009924EE24FF248701AB2CBB24A7FCB094B3
:1056E000CA15DB0529F1CD32D10519F4992493941B
:1056F0001FC0CE01C0970A97D8F4C801B7012AE0AD
:1057000030E040E050E00E94FB317B018C01CE0193
:10571000AA2797FDA095BA2FE80EF91E0A1F1B1F96
:1057200080ED9FEFAFEFBFEFE80EF91E0A1F1B1FC2
:10573000D601ED91FC910680F781E02DC601099517
:10574000C6010E940B2BEC01C0970A9748F2CA15BC
:10575000DB0531F2992041F010950095F094E0942A
:10576000E11CF11C011D111DB701C801DF91CF9192
:105770001F910F91FF90EF90DF90CF90BF90AF906F
:105780009F90089561E00E94522B08952F923F92BE
:105790004F925F926F927F928F929F92AF92BF9241
:1057A000CF92DF92EF92FF920F931F93DF93CF93ED
:1057B000CDB7DEB73B014C0119012A016D897E8905
:1057C0008F89988D6A197B098C099D09621A730A61
:1057D000840A950AA40193010E94FB31E218F308A0
:1057E00004091509A80197010E944F322A0D3B1D9B
:1057F0004C1D5D1DB901CA01CF91DF911F910F9121
:10580000FF90EF90DF90CF90BF90AF909F908F90E0
:105810007F906F905F904F903F902F900895FC0184
:10582000848195816817790748F40190F081E02D13
:10583000309721F0E60FF71F8081089580E00895EA
:105840000F931F93CF93DF93EC018B016F5F7F4F1B
:10585000888199810E94712E009711F480E005C023
:10586000998388831B830A8381E0DF91CF911F9105
:105870000F910895CF93DF93EC0188819981892B53
:1058800029F08A819B818617970760F4CE010E94D8
:10589000202C882341F08C819D81892B19F4E8818B
:1058A000F981108281E0DF91CF910895EF92FF920C
:1058B0000F931F93CF93DF93EC017B016C817D816C
:1058C000E114F104C1F04115510599F08A01060F68
:1058D000171FB8010E943A2C882369F088819981AA
:1058E0002C813D81820F931FB7010E9467041D83A5
:1058F0000C8381E001C080E0DF91CF911F910F9177
:10590000FF90EF900895CF93DF93EC018881998108
:10591000009711F00E94D92D198218821D821C82D5
:105920001B821A82DF91CF9108950F931F93182F36
:10593000092FFB0160817181448155810E94562CA1
:10594000882321F4812F902F0E94832C812F902F68
:105950001F910F910895EF92FF920F931F93CF9392
:10596000DF93EC017B018A01BA010E943A2C882363
:1059700021F4CE010E94832C07C01D830C838881F3
:105980009981B7010E946704CE01DF91CF911F91E9
:105990000F91FF90EF900895CF93DF93EC01198260
:1059A00018821B821A821D821C821E82611571055B
:1059B00051F0DB010D900020E9F71197A61BB70B02
:1059C000AD010E94AB2CDF91CF9108950F931F93EF
:1059D000182F092F6115710559F0DB010D9000207A
:1059E000E9F71197A61BB70BAD010E94AB2C02C0C3
:1059F0000E94832C812F902F1F910F910895EF9279
:105A0000FF920F931F93DF93CF93CDB7DEB76297CB
:105A10000FB6F894DEBF0FBECDBF8C01CB01F801ED
:105A200011821082138212821582148216827E01E4
:105A30000894E11CF11CB70150E00E946E04C801FB
:105A4000B7010E94E62C62960FB6F894DEBF0FBE37
:105A5000CDBFCF91DF911F910F91FF90EF900895EF
:105A6000FC01808191810E94D92D0895FC018081E3
:105A700091810E94D92D08950F931F93CF93DF93A7
:105A8000BC018230910510F462E070E0E0911507EE
:105A9000F091160740E050E0A0E0B0E024C0808123
:105AA000918186179707D0F08617970771F4828146
:105AB0009381109729F013969C938E9312972CC084
:105AC000909316078093150727C04115510519F0CB
:105AD0008417950718F48D01AC01EF01DF01828175
